:020000040000fa
:04005c00da020000c4
:020000040000fa
:04001000da02000010
:020000040000fa
:04025c00da020000c2
:020000040000fa
:04021000da0200000e
:020000040000fa
:04027400da020000aa
:020000040000fa
:04032400da020000f9
:020000040000fa
:04035000da020000cd
:020000040000fa
:04022c00da020000f2
:020000040000fa
:04023c00da020000e2
:020000040000fa
:04028000da0200009e
:020000040000fa
:04028400da0200009a
:020000040000fa
:04022800da020000f6
:020000040000fa
:04027800da020000a6
:020000040000fa
:04029c00da02000082
:020000040000fa
:04026000da020000be
:020000040000fa
:04026400da020000ba
:020000040000fa
:04027000da020000ae
:020000040000fa
:04027c00da020000a2
:020000040000fa
:04028800da02000096
:020000040000fa
:04028c00da02000092
:020000040000fa
:04029000da0200008e
:020000040000fa
:04029400da0200008a
:020000040000fa
:04029800da02000086
:020000040000fa
:0402a000da0200007e
:020000040000fa
:0402a400da0200007a
:020000040000fa
:0402a800da02000076
:020000040000fa
:0402ac00da02000072
:020000040000fa
:0402b000da0200006e
:020000040000fa
:0402b400da0200006a
:020000040000fa
:0402b800da02000066
:020000040000fa
:0402bc00da02000062
:020000040000fa
:0402c000da0200005e
:020000040000fa
:0402c400da0200005a
:020000040000fa
:04023800da020000e6
:020000040000fa
:0402c800da02000056
:020000040000fa
:0402cc00da02000052
:020000040000fa
:0402d000da0200004e
:020000040000fa
:0402d400da0200004a
:020000040000fa
:0402d800da02000046
:020000040000fa
:0402dc00da02000042
:020000040000fa
:0402e000da0200003e
:020000040000fa
:0402e400da0200003a
:020000040000fa
:0402e800da02000036
:020000040000fa
:0402ec00da02000032
:020000040000fa
:0402f000da0200002e
:020000040000fa
:0402f400da0200002a
:020000040000fa
:0402f800da02000026
:020000040000fa
:0402fc00da02000022
:020000040000fa
:04030000da0200001d
:020000040000fa
:04030400da02000019
:020000040000fa
:04030800da02000015
:020000040000fa
:04031400da02000009
:020000040000fa
:04031800da02000005
:020000040000fa
:04031c00da02000001
:020000040000fa
:04032000da020000fd
:020000040000fa
:04032800da020000f5
:020000040000fa
:04033000da020000ed
:020000040000fa
:04033400da020000e9
:020000040000fa
:04033800da020000e5
:020000040000fa
:04033c00da020000e1
:020000040000fa
:04034000da020000dd
:020000040000fa
:04034400da020000d9
:020000040000fa
:04034800da020000d5
:020000040000fa
:04026c00da020000b2
:020000040000fa
:04030c00da02000011
:020000040000fa
:04034c00da020000d1
:020000040000fa
:04021800da02000006
:020000040000fa
:04023000da020000ee
:020000040000fa
:04024000da020000de
:020000040000fa
:04020c00da02000012
:020000040000fa
:04031000da0200000d
:020000040000fa
:04020800da02000016
:020000040000fa
:04021c00da02000002
:020000040000fa
:04022000da020000fe
:020000040000fa
:04022400da020000fa
:020000040000fa
:04026800da020000b6
:020000040000fa
:04024c00da020000d2
:020000040000fa
:04025000da020000ce
:020000040000fa
:04021400da0200000a
:020000040000fa
:04023400c8020000fc
:020000040000fa
:04024400da020000da
:020000040000fa
:04024800da020000d6
:020000040000fa
:04032c00da020000f1
:020000040000fa
:04025400da020000ca
:020000040000fa
:04025800da020000c6
:020000040000fa
:04007400da020000ac
:020000040000fa
:04012400da020000fb
:020000040000fa
:04015000da020000cf
:020000040000fa
:04002c00da020000f4
:020000040000fa
:04003c00da020000e4
:020000040000fa
:04008000da020000a0
:020000040000fa
:04008400da0200009c
:020000040000fa
:04002800da020000f8
:020000040000fa
:04007800da020000a8
:020000040000fa
:04009c00da02000084
:020000040000fa
:04006000da020000c0
:020000040000fa
:04006400da020000bc
:020000040000fa
:04007000da020000b0
:020000040000fa
:04007c00da020000a4
:020000040000fa
:04008800da02000098
:020000040000fa
:04008c00da02000094
:020000040000fa
:04009000da02000090
:020000040000fa
:04009400da0200008c
:020000040000fa
:04009800da02000088
:020000040000fa
:0400a000da02000080
:020000040000fa
:0400a400da0200007c
:020000040000fa
:0400a800da02000078
:020000040000fa
:0400ac00da02000074
:020000040000fa
:0400b000da02000070
:020000040000fa
:0400b400da0200006c
:020000040000fa
:0400b800da02000068
:020000040000fa
:0400bc00da02000064
:020000040000fa
:0400c000da02000060
:020000040000fa
:0400c400da0200005c
:020000040000fa
:04003800da020000e8
:020000040000fa
:0400c800da02000058
:020000040000fa
:0400cc00da02000054
:020000040000fa
:0400d000da02000050
:020000040000fa
:0400d400da0200004c
:020000040000fa
:0400d800da02000048
:020000040000fa
:0400dc00da02000044
:020000040000fa
:0400e000da02000040
:020000040000fa
:0400e400da0200003c
:020000040000fa
:0400e800da02000038
:020000040000fa
:0400ec00da02000034
:020000040000fa
:0400f000da02000030
:020000040000fa
:0400f400da0200002c
:020000040000fa
:0400f800da02000028
:020000040000fa
:0400fc00da02000024
:020000040000fa
:04010000da0200001f
:020000040000fa
:04010400da0200001b
:020000040000fa
:04010800da02000017
:020000040000fa
:04011400da0200000b
:020000040000fa
:04011800da02000007
:020000040000fa
:04011c00da02000003
:020000040000fa
:04012000da020000ff
:020000040000fa
:04012800da020000f7
:020000040000fa
:04013000da020000ef
:020000040000fa
:04013400da020000eb
:020000040000fa
:04013800da020000e7
:020000040000fa
:04013c00da020000e3
:020000040000fa
:04014000da020000df
:020000040000fa
:04014400da020000db
:020000040000fa
:04014800da020000d7
:020000040000fa
:04006c00da020000b4
:020000040000fa
:04010c00da02000013
:020000040000fa
:04014c00da020000d3
:020000040000fa
:04001800da02000008
:020000040000fa
:04003000da020000f0
:020000040000fa
:04004000da020000e0
:020000040000fa
:04000c00da02000014
:020000040000fa
:04011000da0200000f
:020000040000fa
:04000800da02000018
:020000040000fa
:04001c00da02000004
:020000040000fa
:04002000da02000000
:020000040000fa
:04002400da020000fc
:020000040000fa
:04006800da020000b8
:020000040000fa
:04004c00da020000d4
:020000040000fa
:04005000da020000d0
:020000040000fa
:04001400da0200000c
:020000040000fa
:04004400da020000dc
:020000040000fa
:04004800da020000d8
:020000040000fa
:04012c00da020000f3
:020000040000fa
:04005400da020000cc
:020000040000fa
:04005800da020000c8
:020000040000fa
:080000000002040000000000f2
:020000040000fa
:10040000ef8120000eff20000e0188000000000098
:10041000000020000000e000020032000001200087
:100420002002880014000700640007000000e000bc
:1004300003003a00206f2000010020000200370076
:100440000000200001002000810f70000100320038
:1004500014000700000020000000e000020032004d
:100460000000020000000000ce05020000000000b5
:100470000040da000000fe004440a9000000200017
:100480000000e0000300320000002000a00188000e
:100490004440a800000006008a1f78008b1f7800e7
:1004a0000000060091018800800478000000eb0045
:1004b0001a003700e284440032a0b4009905ba0063
:1004c000e284440032a0b4009906ba00e2844400f9
:1004d00032a0b4000006eb00476fde00fd07b2005b
:1004e000636ce10003003a00ebff07000000eb0043
:1004f0000a003700606ce10004003a00005deb0088
:100500008b05e900fdff3e00040037006168e10053
:10051000010032000086eb000b00070019c7ba008b
:100520001905ba000e04e00003003a000a00e000da
:10053000e0ff3a0000000600fe07b2009e018800be
:100540008a047800f5ff3700395dba008b05e900b1
:100550000c003200295dba008b05e900080032006a
:100560000c00e00003003a00e284440032a0b40032
:10057000f5ff370019ddba008b05e900faff3a00f4
:100580008904e800e184440032a0b40000000600c1
:100590003400f800881f780008002000a8018800b7
:1005a0004f0478001c08a8008460a9003400f900fa
:1005b000004006000040da000000fe0000000500d8
:1005c000140020003d013700f4ff2f003b013700ed
:1005d00007f82700078361000638e10004003a00ad
:1005e000f7072000878361008703710001003a004c
:1005f00003f0a200889fbe008a9fbe008c9fbe00b1
:10060000470ade000480a100c71ade000580a100b1
:10061000070028000785600087856100f70f20002c
:100620000720e1009e0032000728e1009c00320014
:10063000010678000400e000b4003200f707200053
:10064000878060000170a0000500e000c00032005b
:10065000f7072000878161000370a00005065200a3
:100660000f003a000b50e1000b0032000308e100dc
:1006700002003a000200e1007e0032000204500055
:1006800083845800040031000001fd008101fd0059
:100690008402fd008a05fd006044b8002100370097
:1006a0000520e10005003d000001fd008101fd0085
:1006b0008402fd008a05fd00050652007a60e10013
:1006c000050035000170a1004722dd008480700024
:1006d0008a807000630037006044b800ef02660053
:1006e00007ff2f00070666000500e0000600340043
:1006f000f08312008714dd000511de00071bdd000a
:10070000060171008519de007060e100050035000a
:100710000904780082047800030178008001eb006e
:10072000700656000b50e10003003a000200400042
:10073000838048000400370060041400e0841c003b
:1007400002005800838058000188a3000600320090
:100750008100d1000080d3008984d3000884d300b5
:100760000402e800270037000178a30025003a00c2
:100770000100e000030032008186cf006986560048
:100780000a0037008c0020000000e00004003a005e
:1007900009007800880478000004eb007002520021
:1007a0008086cf000d0646000c06e9007060e1006f
:1007b0000600350080007800090078008804780081
:1007c0000004eb0070065600700252000c00e000be
:1007d0000c0034008c08dd00f00316000703de0077
:1007e000868070000c00dd00074bde000600700004
:1007f0008c4cdd000743de00868474000c44dd0071
:100800000c0252006120e10020003500610160000f
:100810000700280087816400f7ff270087836400b2
:10082000070374000300e000060032008203730037
:10083000040032000000e800e08048000188a300c6
:100840000e003a00f70f20000720e1004a003d00ab
:100850000170a1004722dd00810072008a807000d3
:100860000000be004f06be004f05be004f04be0094
:10087000000006006000b800faff37008100d100d8
:100880000080d3000402e800eeff37000401780086
:10089000890174003c0007008a807000f1ff370076
:1008a00063000700070278000001fd008101fd00e0
:1008b0005f00070087027800850372000778a300b5
:1008c000040032000001fd008101fd0072000700fc
:1008d000e4ff3700850362000768a30008003200c8
:1008e0000b50e10003003200f0ff2f00f1ff270062
:1008f000dcff37000001fd008101fd00d9ff37005a
:100900000468a300d7ff3200faff3700f8ff270082
:10091000888360000b003a000000e00009003a0004
:100920008303640082837300020032000200be0071
:10093000ccff37000b50e100ceff3a000200be00b2
:10094000c8ff370014002000810064003eff37001c
:10095000f8ff27008883610004003a000200e000ed
:1009600002003a008c007800beff3700150020001e
:100970008301640039ff370001f8270000002000e0
:1009800081007500b7ff37000100e000260032004b
:10099000610111007810e10023003c006022b800e2
:1009a0007010e1000400350080027800010078003a
:1009b0008000eb00700151000200e00009003400eb
:1009c00070031100062add00822ade008603dd00a6
:1009d000878272000200de00860bdd0007007000d7
:1009e0008208de0084817100f4ff27000482620027
:1009f000848171000400280084826200610260002a
:100a000005f0a60000000600048271000700320015
:100a10000000e800e0804800000006000002be0080
:100a20006000b800efff37006000b800000006006b
:100a30002700200001f0a70017002000470bde0070
:100a4000f60fb200040032000643e8000a0032004c
:100a50004702b3000000060001037800f607b20069
:100a60000603700002003a000703b300000006000e
:100a70008702b3000000060001037800f607b20009
:100a800006037000020032000770a000000006009c
:100a90000760a000000006000478a30004003200f4
:100aa0000578a300030032000168a30001003a00aa
:100ab0000200be000160a00000000600889fbe008a
:100ac0008a9fbe00841f7800170007004f0078003f
:100ad00011003300f0ff2f00838f6c0006003b00f5
:100ae000040565000a00a7000800370009f0a60009
:100af0001000200008003700820f5400838f5c0034
:100b0000030039001000200001003e00000020001a
:100b100009f0a7000000ea004f05be004f04be0028
:100b20000000e000000006000004be000600070010
:100b30000003be000405be000200be000200070064
:100b4000844f750000000600c70ade00f107b200fe
:100b5000f50fb20008003200e1cf4200020032007f
:100b60000170a00024000500810f70000100320018
:100b70000408050044000500810f700002003a00df
:100b8000140005008502e9000000400081c0480013
:0c0b9000fcff3b000170a00024000500e9
:020000040000fa
:0200000401f009
:04001c00dfff000002
:020000040000fa
:0200000401f009
:040014005f00000089
:020000040000fa
:0200000401f009
:04001000620000008a
:020000040000fa
:0200000401f009
:04000c00820000006e
:020000040000fa
:04003400c8020000fe
:020000040000fa
:100b9c004387ab0004003200103a80004c00de00aa
:100bac006400600036003200e0062000303a880015
:100bbc0050002000203a8800a109200032002000bb
:100bcc008007200033742000804978008149780028
:100bdc00824978007105200012002000600420007a
:100bec00237420008049780081497800824978007c
:100bfc004004200060198800e0ff2f004016880098
:100c0c000100270000002300133a800003816000dc
:100c1c00800f5100fcff3a0042a7ab00feff3200f0
:100c2c00690007000421ef00f0ff2800a400b600c3
:100c3c0000d0a000200588008460a9009460a80062
:100c4c0030422f0010088800000220002008880085
:100c5c0020422f000008880005e1a8001c08e200d3
:100c6c00feff320042a0a8001c08a90018000700d3
:100c7c0042a0a9001c08e200f8ff3200f9ff37007f
:100c8c00a2092000810720003374200081497800dc
:100c9c0082497800804978007105200012002000fc
:100cac00600420002374200080497800814978007a
:100cbc0082497800000000000000000000002700be
:100ccc00123a800082006000fdff3a00b6ff370048
:100cdc00889fbe008a9fbe008c1f78009a168000e9
:100cec006145650088408000994080006011b80023
:100cfc000800be0031fe07000000e00007003400d1
:100d0c001cc0b30002002000030424000800be0035
:100d1c0028fe07000000e000010034000046eb0054
:100d2c000a85fb000a054500b040800061006000a8
:100d3c008000450081804000aa4080006100650071
:100d4c008080400000802000e0c57800e8804000f2
:100d5c00e0c17800a2812000034978000000eb007c
:100d6c00800078000b04e00004003200d2cc2c0090
:100d7c00c3dc23000800be001bfe070061066600f2
:100d8c00621680000200a100020176006216880043
:100d9c00e18565000a00a1000a857500aa4088005b
:100dac00800178000101780003007800820078004f
:100dbc0080408800914088004f0678004f05be00a7
:100dcc004f04be000000060030c0b30018e8b700a6
:080ddc00000006000000060003
:020000040000fa
:100de40000080000100000000200000000010000e4
:100df40000010100000001000001010000000000ea
:100e0400000000001c0800000200000000000000b8
:100e1400100800000c0000000000000000000000aa
:00000001FF
