:020000040000fa
:04005c00da020000c4
:020000040000fa
:04001000da02000010
:020000040000fa
:04025c00da020000c2
:020000040000fa
:04021000da0200000e
:020000040000fa
:04027400da020000aa
:020000040000fa
:04032400da020000f9
:020000040000fa
:04035000da020000cd
:020000040000fa
:04022c00da020000f2
:020000040000fa
:04023c00da020000e2
:020000040000fa
:04028000da0200009e
:020000040000fa
:04028400da0200009a
:020000040000fa
:04022800da020000f6
:020000040000fa
:04027800da020000a6
:020000040000fa
:04029c00da02000082
:020000040000fa
:04026000da020000be
:020000040000fa
:04026400da020000ba
:020000040000fa
:04027000da020000ae
:020000040000fa
:04027c00da020000a2
:020000040000fa
:04028800da02000096
:020000040000fa
:04028c00da02000092
:020000040000fa
:04029000da0200008e
:020000040000fa
:04029400da0200008a
:020000040000fa
:04029800da02000086
:020000040000fa
:0402a000da0200007e
:020000040000fa
:0402a400da0200007a
:020000040000fa
:0402a800da02000076
:020000040000fa
:0402ac00da02000072
:020000040000fa
:0402b000da0200006e
:020000040000fa
:0402b400da0200006a
:020000040000fa
:0402b800da02000066
:020000040000fa
:0402bc00da02000062
:020000040000fa
:0402c000da0200005e
:020000040000fa
:0402c400da0200005a
:020000040000fa
:04023800da020000e6
:020000040000fa
:0402c800da02000056
:020000040000fa
:0402cc00da02000052
:020000040000fa
:0402d000da0200004e
:020000040000fa
:0402d400da0200004a
:020000040000fa
:0402d800da02000046
:020000040000fa
:0402dc00da02000042
:020000040000fa
:0402e000da0200003e
:020000040000fa
:0402e400da0200003a
:020000040000fa
:0402e800da02000036
:020000040000fa
:0402ec00da02000032
:020000040000fa
:0402f000da0200002e
:020000040000fa
:0402f400da0200002a
:020000040000fa
:0402f800da02000026
:020000040000fa
:0402fc00da02000022
:020000040000fa
:04030000da0200001d
:020000040000fa
:04030400da02000019
:020000040000fa
:04030800da02000015
:020000040000fa
:04031400da02000009
:020000040000fa
:04031800da02000005
:020000040000fa
:04031c00da02000001
:020000040000fa
:04032000da020000fd
:020000040000fa
:04032800da020000f5
:020000040000fa
:04033000da020000ed
:020000040000fa
:04033400da020000e9
:020000040000fa
:04033800da020000e5
:020000040000fa
:04033c00da020000e1
:020000040000fa
:04034000da020000dd
:020000040000fa
:04034400da020000d9
:020000040000fa
:04034800da020000d5
:020000040000fa
:04026c00da020000b2
:020000040000fa
:04030c00da02000011
:020000040000fa
:04034c00da020000d1
:020000040000fa
:04021800da02000006
:020000040000fa
:04023000da020000ee
:020000040000fa
:04024000da020000de
:020000040000fa
:04020c00da02000012
:020000040000fa
:04031000da0200000d
:020000040000fa
:04020800da02000016
:020000040000fa
:04021c00da02000002
:020000040000fa
:04022000da020000fe
:020000040000fa
:04022400da020000fa
:020000040000fa
:04026800da020000b6
:020000040000fa
:04024c00da020000d2
:020000040000fa
:04025000da020000ce
:020000040000fa
:04021400da0200000a
:020000040000fa
:04023400c8020000fc
:020000040000fa
:04024400da020000da
:020000040000fa
:04024800da020000d6
:020000040000fa
:04032c00da020000f1
:020000040000fa
:04025400da020000ca
:020000040000fa
:04025800da020000c6
:020000040000fa
:04007400da020000ac
:020000040000fa
:04012400da020000fb
:020000040000fa
:04015000da020000cf
:020000040000fa
:04002c00da020000f4
:020000040000fa
:04003c00da020000e4
:020000040000fa
:04008000da020000a0
:020000040000fa
:04008400da0200009c
:020000040000fa
:04002800da020000f8
:020000040000fa
:04007800da020000a8
:020000040000fa
:04009c00da02000084
:020000040000fa
:04006000da020000c0
:020000040000fa
:04006400da020000bc
:020000040000fa
:04007000da020000b0
:020000040000fa
:04007c00da020000a4
:020000040000fa
:04008800da02000098
:020000040000fa
:04008c00da02000094
:020000040000fa
:04009000da02000090
:020000040000fa
:04009400da0200008c
:020000040000fa
:04009800da02000088
:020000040000fa
:0400a000da02000080
:020000040000fa
:0400a400da0200007c
:020000040000fa
:0400a800da02000078
:020000040000fa
:0400ac00da02000074
:020000040000fa
:0400b000da02000070
:020000040000fa
:0400b400da0200006c
:020000040000fa
:0400b800da02000068
:020000040000fa
:0400bc00da02000064
:020000040000fa
:0400c000da02000060
:020000040000fa
:0400c400da0200005c
:020000040000fa
:04003800da020000e8
:020000040000fa
:0400c800da02000058
:020000040000fa
:0400cc00da02000054
:020000040000fa
:0400d000da02000050
:020000040000fa
:0400d400da0200004c
:020000040000fa
:0400d800da02000048
:020000040000fa
:0400dc00da02000044
:020000040000fa
:0400e000da02000040
:020000040000fa
:0400e400da0200003c
:020000040000fa
:0400e800da02000038
:020000040000fa
:0400ec00da02000034
:020000040000fa
:0400f000da02000030
:020000040000fa
:0400f400da0200002c
:020000040000fa
:0400f800da02000028
:020000040000fa
:0400fc00da02000024
:020000040000fa
:04010000da0200001f
:020000040000fa
:04010400da0200001b
:020000040000fa
:04010800da02000017
:020000040000fa
:04011400da0200000b
:020000040000fa
:04011800da02000007
:020000040000fa
:04011c00da02000003
:020000040000fa
:04012000da020000ff
:020000040000fa
:04012800da020000f7
:020000040000fa
:04013000da020000ef
:020000040000fa
:04013400da020000eb
:020000040000fa
:04013800da020000e7
:020000040000fa
:04013c00da020000e3
:020000040000fa
:04014000da020000df
:020000040000fa
:04014400da020000db
:020000040000fa
:04014800da020000d7
:020000040000fa
:04006c00da020000b4
:020000040000fa
:04010c00da02000013
:020000040000fa
:04014c00da020000d3
:020000040000fa
:04001800da02000008
:020000040000fa
:04003000da020000f0
:020000040000fa
:04004000da020000e0
:020000040000fa
:04000c00da02000014
:020000040000fa
:04011000da0200000f
:020000040000fa
:04000800da02000018
:020000040000fa
:04001c00da02000004
:020000040000fa
:04002000da02000000
:020000040000fa
:04002400da020000fc
:020000040000fa
:04006800da020000b8
:020000040000fa
:04004c00da020000d4
:020000040000fa
:04005000da020000d0
:020000040000fa
:04001400da0200000c
:020000040000fa
:04004400da020000dc
:020000040000fa
:04004800da020000d8
:020000040000fa
:04012c00da020000f3
:020000040000fa
:04005400da020000cc
:020000040000fa
:04005800da020000c8
:020000040000fa
:080000000002040000000000f2
:020000040000fa
:10040000cf8520000eff20000e01880000000000b4
:10041000000020000000e000020032000001200087
:100420002002880014000700860107000000e00099
:1004300003003a00a0222100010020000200370042
:100440000000200001002000810f70000100320038
:1004500014000700000020000000e000020032004d
:1004600000000200000000008811020000000000ef
:100470000040da000000fe004440a9000000200017
:100480000000e0000300320000002000a00188000e
:100490004440a800000006008a1f78008b1f7800e7
:1004a0000000060091018800800478000000eb0045
:1004b0001a003700e284440032a0b4009905ba0063
:1004c000e284440032a0b4009906ba00e2844400f9
:1004d00032a0b4000006eb00476fde00fd07b2005b
:1004e000636ce10003003a00ebff07000000eb0043
:1004f0000a003700606ce10004003a00005deb0088
:100500008b05e900fdff3e00040037006168e10053
:10051000010032000086eb000b00070019c7ba008b
:100520001905ba000e04e00003003a000a00e000da
:10053000e0ff3a0000000600fe07b2009e018800be
:100540008a047800f5ff3700395dba008b05e900b1
:100550000c003200295dba008b05e900080032006a
:100560000c00e00003003a00e284440032a0b40032
:10057000f5ff370019ddba008b05e900faff3a00f4
:100580008904e800e184440032a0b40000000600c1
:100590003400f800881f780008002000a8018800b7
:1005a0004f0478005808a8008460a9003400f900be
:1005b000004006000040da000000fe000400fa00df
:1005c000889fbe008a9fbe000004be004709de006f
:1005d00003002000f20fb200f207b100f60f510045
:1005e00031003c000200e0001c003500faff2f0043
:1005f000fb0720000201e900030033008b85d100d6
:100600000a85d300fbff37008b8164000a0160007c
:10061000e00f5100e08f590023003200020020005b
:1006200003b8270066010700a0bf9f00b1bf9f006d
:10063000e00f5400e08f5c00020035000a04440023
:100640008b844c000a85ea008b85ea008b8064006d
:100650000a0064000004be001200370002002000ff
:1006600003b8270056010700a0bf9f00b1bf9f003d
:10067000e00f5400e08f5c0003003d000800200004
:1006800009002800070037000800440089804c005a
:10069000e00f5000e08f58000200320008002000f8
:1006a00009f823000800be004f05be004f04be003d
:1006b0000080fa00000006000400fa00889fbe00d7
:1006c0008a9fbe000004be004709de000300200030
:1006d000f20fb200f207b100f60f510030003c00fb
:1006e0000200e0001c003500faff2f00fb0720008d
:1006f0000201e900030033008b85d1000a85d30095
:10070000fbff37008b8164000a016000e00f51009d
:10071000e08f5900220032000200200003b82700b9
:1007200027010700a0bf9f00b1bf9f00e00f54004a
:10073000e08f5c0002003d000a0444008b844c0002
:100740000a85ea008b85ea008b8064000a00640059
:100750000004be00110037000200200003b827008b
:1007600017010700a0bf9f00b1bf9f00e00f54001a
:10077000e08f5c00020035006044b80007003700dd
:100780000800440089804c00e00f5000e08f5800c2
:10079000020032000800200009f82b000800be000b
:1007a0004f05be004f04be000080fa0000000600a6
:1007b000000006000400fa00889fbe008a9fbe0069
:1007c0008c9fbe000004be000205be000206410070
:1007d00083864900e00f5600e08f5e00140032006f
:1007e0000200be0082bf9f0093bf9f00f0ff070082
:1007f0008102780005f0a1000002780000002000ce
:1008000001f827000fb997009fb99700800f520099
:10081000818f5a0006003e000802be00474bde00f2
:10082000070020000680fb00e14f430005003a006e
:100830000800be00a60207000001be00c5010700b7
:10084000090037000801440089814c008c0f5100d9
:100850008d8f590006003e0074003a006011b80008
:100860000800be009a0207000004be006f003700b7
:100870000000e00013003a004949dd00c741de00f6
:10088000830171004941dd00030037000000e900e9
:100890000201410083814900e00f5100e08f5900bf
:1008a000faff3d00e10010000401be008100e900f4
:1008b000030033000201410083814900fbff370040
:1008c0000400370085017800f307b20008017800c2
:1008d0000370a000475bde00070020008600780060
:1008e000f10fb20012003a00495bdd00c753de0091
:1008f000870373004953dd00030037008100e900de
:100900000603430087834b00e00f5300e08f5b003a
:10091000faff3d00618310000603e9000300330085
:100920000a0545008b854d00fbff3700100037009e
:100930008b037800f707b2000a0378000605be00b3
:100940000b70a0000a003700e00f5300e08f5b003f
:1009500004003500e00f5300e08f5b00bfff320062
:100960000601be0002014100838149000000e90048
:100970000a0351008b835900810f5000f2ff3c00a5
:10098000e00f5300e08f5b0003003d0009003700db
:100990000601be0007003700e00f5300e08f5b0048
:1009a000fbff3a00adff370002014100838149009f
:1009b0000000e900471bde0007002000e00f5300a5
:1009c000e08f5b00f8ff32000000e0000a00340016
:1009d0000600200007f82f000201430083814b002e
:1009e000cf80de00c700dd000000200002017000a3
:1009f0008381700006003700610010000000e900ec
:100a0000030033008301d1000281d300fbff3700d4
:100a100000002000010028008583600000037800aa
:100a200006017100878171000204be000800be004b
:100a30004f06be004f05be004f04be000080fa0006
:100a4000000006000000050014002000a803370085
:100a5000f4ff2f00a60337000001be003a00070094
:100a60000470a70003f0a1006509b1001600320070
:100a70000d0035006828e10006003500f0ff2f006a
:100a8000f1ff27000300e00013003b0001002800f5
:100a90000000050000004000818048008502e90058
:100aa000fcff3a0008003700f88f420002003c00cb
:100ab0008000eb00000005008100d1000080d30021
:100ac0008502e800fcff3a000300e00002003b0062
:100ad00060001000e0801800000006000001be0069
:100ae000190007000470a70003f0a10003f8a30099
:100af00013003a006509b10010003200090035000a
:100b00006928e1000200350001002800000005000e
:100b100000004000818048008502e900fcff3a00a7
:100b200000000600f88f4200050035008100d1006a
:100b30000080d3008502e800fcff3a0000000600b8
:100b40008000eb0000000500c70ade00f107b200dc
:100b5000f50fb20008003200e1cf4200020032007f
:100b60000170a00024000500810f70000100320018
:100b70000408050044000500810f700002003a00df
:100b8000140005008502e9000000400081c0480013
:100b9000fcff3b000170a0002400050007f82700bf
:100ba000078361000638e10004003a00f7072000df
:100bb000878361008703710001003a0003f0a200ff
:100bc000889fbe008a9fbe008c9fbe00470ade0041
:100bd0000480a100c71ade000580a10007002800dc
:100be0000785600087856100f70f20000720e1007e
:100bf0009e0032000728e1009c00320001067800c8
:100c00000400e000b4003200f70720008780600095
:100c10000170a0000500e000c0003200f7072000ce
:100c2000878161000370a000050652000f003a00a2
:100c30000b50e1000b0032000308e10002003a0013
:100c40000200e1007e00320002045000838458005c
:100c5000040031000001fd008101fd008402fd005f
:100c60008a05fd006044b800210037000520e1003e
:100c700005003d000001fd008101fd008402fd0032
:100c80008a05fd00050652007a60e1000500350086
:100c90000170a1004722dd00848070008a8070000e
:100ca000630037006044b800ef02660007ff2f00c2
:100cb000070666000500e00006003400f08312001d
:100cc0008714dd000511de00071bdd000601710041
:100cd0008519de007060e100050035000904780028
:100ce00082047800030178008001eb007006560052
:100cf0000b50e10003003a000200400083804800ee
:100d00000400370060041400e0841c000200580056
:100d1000838058000188a300060032008100d100c2
:100d20000080d3008984d3000884d3000402e80043
:100d3000270037000178a30025003a000100e000f9
:100d4000030032008186cf00698656000a00370012
:100d50008c0020000000e00004003a000900780048
:100d6000880478000004eb00700252008086cf00f7
:100d70000d0646000c06e9007060e1000600350033
:100d80008000780009007800880478000004eb00f7
:100d900070065600700252000c00e0000c00340097
:100da0008c08dd00f00316000703de00868070006b
:100db0000c00dd00074bde00060070008c4cdd00ef
:100dc0000743de00868474000c44dd000c025200f0
:100dd0006120e1002000350061016000070028006b
:100de00087816400f7ff270087836400070374008e
:100df0000300e000060032008203730004003200aa
:100e00000000e800e08048000188a3000e003a00de
:100e1000f70f20000720e1004a003d000170a1000b
:100e20004722dd00810072008a8070000000be0051
:100e30004f06be004f05be004f04be000000060076
:100e40006000b800faff37008100d1000080d300b5
:100e50000402e800eeff3700040178008901740005
:100e6000a10107008a807000f1ff3700f701070039
:100e7000070278000001fd008101fd00f301070079
:100e800087027800850372000778a300040032000f
:100e90000001fd008101fd0006020700e4ff3700ac
:100ea000850362000768a300080032000b50e100d0
:100eb00003003200f0ff2f00f1ff2700dcff3700b6
:100ec0000001fd008101fd00d9ff37000468a30087
:100ed000d7ff3200faff3700f8ff27008883600051
:100ee0000b003a000000e00009003a0083036400b0
:100ef00082837300020032000200be00ccff370084
:100f00000b50e100ceff3a000200be00c8ff3700e0
:100f100014002000810064003eff3700f8ff270026
:100f20008883610004003a000200e00002003a00f9
:100f30008c007800beff370015002000830164009c
:100f400039ff370001f827000000200081007500fc
:100f5000b7ff3700889fbe008a9fbe008c9fbe00ef
:100f60001b0020000202be00058668000600280063
:100f7000060666004709de00f20fb200820032006a
:100f80000243e80080003200c729de00f30fb20000
:100f90007d0032000343e8007b003200f107b2001d
:100fa0000170a000f507b2000570a000c708dd00c1
:100fb0004903de00868070004700dd00c72add009f
:100fc0004923de00868272004722dd0003055100be
:100fd00004035000858358000300310000004000e6
:100fe000818048000a05e9008c1f78008a9fbe00b6
:100ff00004005000858058000402420085824a00a7
:1010000000004000818048000005eb000004be00a5
:101010006033b8000406be000d48e1005600310000
:10102000110009004dccd8000c01b8000d02b80029
:101030008481410060824a008283530003045c0083
:1010400084845c0060055d000a00e00025003a0031
:10105000800578000d40e1004900310088007800eb
:1010600007007800110009004d88d8000c01b80075
:101070000d02b8008481410060824a0060031100c3
:1010800083835b0004045c00e0845c000900e000f2
:1010900021003a004f01be000300e0002b003200a7
:1010a000e3016000070673008c81710001003200cb
:1010b000640070004200de004e5edd000c00700037
:1010c000c258de0001e0a00083010700cf017800d4
:1010d000818071004f06be004f05be004f04be0068
:1010e000000006008c8343000d044c00e0844c009b
:1010f00060054d000000e9000a00e000d4ff320066
:101100008c8343000d044c00e0844c0060054d00ce
:101110000000e900ceff37000c0343008d834b0035
:1011200060044c00e0844c000000e9000900e0008d
:10113000d8ff32000c0343008d834b0060044c0049
:10114000e0844c000000e900d2ff37004200de00de
:101150004e5edd000c007000c258de0001e0a00011
:10116000cf0178000300e000daff320060001000d9
:10117000e0801800d7ff3700f0ff2f00aaff3700ec
:10118000f0ff2f00b9ff37000404be002f01070055
:10119000870678000004fd008104fd002b01070094
:1011a000078366000678a300030032000960a700e9
:1011b0000800be002c0037000d78a30002003200aa
:1011c0000800be00280037000778a30026003a0078
:1011d00001f0a10009f0a1000668a300030032009d
:1011e000f1ff2700f0ff2f00baff37000d68a300c2
:1011f000030032000800be008c807000b5ff37008d
:101200000768a30007003a000648a3000300320065
:10121000f1ff2700f0ff2f00aeff37000d48a300bd
:10122000030032006000b8008c807000a9ff370016
:101230000748a3000400320001f827000000200046
:101240008c807000a3ff3700760107000004fd00ca
:101250008104fd0002057800720107000802be004b
:101260008a01780059ff37000160a00012022000b7
:10127000d242880097ff37000100e00012003200e0
:101280000500e00010003200889fbe008a9fbe006b
:101290008c9fbe000006eb0001f8a30003003200a3
:1012a00060001000e08018000cf0a00005f8a3001a
:1012b0000300320060021200e0821a000cf0a2006b
:1012c0008005eb0041ff37006000b8000200050018
:1012d000038368000700280007036300470ade0055
:1012e0000480a100c71ade000580a100f70f2000ce
:1012f0000720e100420032000728e10040003200f0
:10130000889fbe008a9fbe008c1f7800f107b20044
:10131000f307b2000400e000640032000170a00096
:101320000500e000680032000370a000850542005f
:10133000eb07b1000204b8000302b8008484440043
:1013400060854a00020ab800848444000a854a0085
:10135000030ab80004054500040033000804d00067
:101360008984d2000a85d2008b05e9006158e1002a
:101370003d00350002102000090161000308200033
:1013800089816100f7072000878364000886730065
:10139000c84cde00c853dd00878474004855de0069
:1013a0000300e000060032008203760004003200f1
:1013b0008904e80060054d000a88a3000c003a008b
:1013c000f70f20000758e10044003d000a70a1001b
:1013d000c75ddd000a8575008a007300090078008a
:1013e0004f0678004f05be004f04be000000060007
:1013f0000a05d1008984d3008b05e800f0ff37008f
:10140000881f780006047800900007000702780023
:101410000001fd008101fd008c00070087027800bb
:10142000850372000778a300050032000001fd006b
:101430008101fd009f0007004f04780000000600b6
:10144000850372000748a30003003200f0ff2f005d
:10145000f1ff2700f8ff37000000200001f8270007
:1014600088807000f4ff3700880178004848dd006c
:10147000808171004848de00c850dd000100700026
:10148000c850de00060478000b0178001600070043
:1014900088807000d2ff37000500e00005003200b0
:1014a000170020003a0007009dff370081037000fd
:1014b000f9ff3a00860078004f0678004f05be001d
:1014c0004f04be000000050083037100f9ff3200e5
:1014d000270020002e00070094ff370001f82700a6
:1014e00086807000f4ff37000100e0002600320023
:1014f000610111007810e10023003c006022b80077
:101500007010e100040035008002780001007800ce
:101510008000eb00700151000200e000090034007f
:1015200070031100062add00822ade008603dd003a
:10153000878272000200de00860bdd00070070006b
:101540008208de0084817100f4ff270004826200bb
:1015500084817100040028008482620061026000be
:1015600005f0a600000006000482710007003200aa
:101570000000e800e0804800000006000002be0015
:101580006000b800efff37006000b8000000060000
:10159000889fbe000004eb006138e10016003a00ad
:1015a0000100e00008003a00c800de004800dd004d
:1015b000880020000100e00003003a00c800de00bf
:1015c0004800dd00680444008184cf00e9845400b1
:1015d000060034008908dd00f08314008703de0074
:1015e000878070000900dd000904440061021400d6
:1015f0004f04be00000006000300e00008003a00af
:10160000c811de004811dd00880020000300e00062
:1016100003003a00c811de004811dd0068044400f0
:101620008384cf00e9845400060034008919dd006a
:10163000f08314008713de00878171000911dd003b
:1016400009044400e1021400e9ff370027002000ec
:1016500001f0a70017002000470bde00f60fb200d4
:10166000040032000643e8000a0032004702b300db
:101670000000060001037800f607b20006037000c0
:1016800002003a000703b300000006008702b3001f
:101690000000060001037800f607b20006037000a0
:1016a000020032000770a000000006000760a000e2
:1016b000000006000478a300040032000578a300af
:1016c000030032000168a30001003a000200be00de
:1016d0000160a000000006008101700027003200b8
:1016e0008002eb0001f8a30003003200600010004c
:1016f000e080180015002000f407200002024200dc
:1017000020003400f7032000870360000604200057
:101710000003630002082000000161004700de00b2
:10172000c909dd0000807100c708de000600e00086
:101730000800320087037100060032001000b0007c
:101740000180b0000188a30002003200c108de0061
:101750000402e800f107b200f30f20000320e100cb
:1017600003003d004722dd008100720029003700a0
:1017700001f827000000eb00260037006000b800e9
:1017800000000600680212007f20e1000200340021
:101790006000b8001f0037006011b8007020e10041
:1017a0000400350080017800010078008000eb0023
:1017b000700252000400e00009003400f00312003f
:1017c0000719dd008419de000703dd008681710042
:1017d0000400de00070bdd00060070008408de0058
:1017e000f7ff27008383630087037100060028004a
:1017f00003036300070032000700e00003003a0023
:101800006101600002817300020032001000b0002c
:101810000180b0000500a6000000060001f0a00055
:10182000000006004f0ade004709de00f107b200a3
:10183000f20fb2000b003200f207b1000170a000fd
:10184000c708dd00c901de00838070004700dd00ad
:101850000400a6000000060060001000e0801800f0
:1018600000000600810f700001003a000000060031
:101870008182cf000500e00010003e008082cf0092
:10188000ee8242007028e1000400390007003e00ab
:10189000800078000000eb000e003700708312001b
:1018a0008600de000500dd000a003700708352006c
:1018b0008600dd000000eb0006003700e2825200e7
:1018c0008508dd00708312000603de00868070004c
:1018d0000500dd007507b0000501ea000400a60060
:1018e0000000060060001000e08018000000060004
:1018f000889fbe008a9fbe00841f780017000700e3
:101900004f00780011003300f0ff2f00838f6c0030
:1019100006003b00040565000a00a7000800370028
:1019200009f0a6001000200008003700820f5400c4
:10193000838f5c00030039001000200001003e008e
:101940000000200009f0a7000000ea004f05be00db
:101950004f04be000000e000000006000004be00ce
:1019600079fc07000003be000405be000200be00b3
:0c19700075fc0700844f750000000600a5
:020000040000fa
:0200000401f009
:04001c00dfff000002
:020000040000fa
:0200000401f009
:040014005f00000089
:020000040000fa
:0200000401f009
:04001000620000008a
:020000040000fa
:0200000401f009
:04000c00820000006e
:020000040000fa
:04003400c8020000fe
:020000040000fa
:10197c00ec874700889fbe008a9fbe008c9fbe00ec
:10198c008e1f78000005be008204780003047800e6
:10199c006011b800090078008800780027fc070067
:1019ac000000e00034003a006011b8000a00be00ec
:1019bc0022fc07000000e00022003a000907780032
:1019cc00080378008e017800060178000300780087
:1019dc00820078004f0778004f06be004f05be000e
:1019ec004f04be00cf00b1000000060009007800d3
:1019fc0088007800f10107000004e0004f0032007d
:101a0c001dc0b3006011b800090078008800780090
:101a1c000afc07000000e000010035008046eb00e6
:101a2c001cc0b3006011b8000a00be0003fc070024
:101a3c000000e000010035000046eb008ccf5600a2
:101a4c00deff3a000a0778000b0378008e0178005d
:101a5c000601780003007800820078004f077800b8
:101a6c004f06be004f05be004f04be00cf00b100b4
:101a7c0000000600ddff37000a00be00ff01070072
:101a8c000004e0000d0032000e428000164280007f
:101a9c008e0178000601780003007800820078003f
:101aac004f0778004f06be004f05be004f04be0026
:101abc00cf00b10000000600ccff37000900780011
:101acc0088007800ed0107000004e000eeff3a000a
:101adc000a00be00b90107000004e000eaff3a006a
:101aec006011b8000a00be00d4fb07000000e00043
:101afc00beff3a000800be000101780080017800aa
:101b0c006000b80010fd07000007780001037800a2
:101b1c008e017800060178000300780082007800be
:101b2c004f0778004f06be004f05be004f04be00a5
:101b3c00cf00b10000000600acff370009017800af
:101b4c00880178000a00be0017fb0700d0b79f0081
:101b5c00c1b79f0000077800010378006011b8003e
:101b6c000e0078008600780086bf9f00b3fb07004c
:101b7c000000e0005800320009007800880078006e
:101b8c00cafa07000901780088017800abfb07004e
:101b9c000fbb97000000e00021003d000901780018
:101bac00880178000a00be00e7fc07000006be00b2
:101bbc000df0a1000200200003f023000c00be0079
:101bcc00fcfb0700b9fa07000001be000c00be00c8
:101bdc00effb07000002be0005f0a1000200200090
:101bec00034023000c00be00e4b79f00f5b79f0034
:101bfc00b4fd07000001be001cc0b3006fb297001b
:101c0c00ffb297000400be008efb07000fbb9700cd
:101c1c000000e000420034000c04e0002e00320012
:101c2c001cc0b3006011b80009007800880078006f
:101c3c0086bf9f0081fb07000fbb97000000e000f0
:101c4c00010035000046eb001dc0b3006011b80068
:101c5c008a0078000b00780001027800800278007e
:101c6c000400be0086bf9f0074fb07000fbb9700eb
:101c7c000000e000010035008046eb008d4f56005f
:101c8c0050ff32000800be0001017800800178008e
:101c9c00dfb297004fb297000500780084007800ff
:101cac00c4fb070000077800010378008e01780060
:101cbc000601780003007800820078004f07780056
:101ccc004f06be004f05be004f04be00cf00b10052
:101cdc000000060045ff37006011b8000802be0086
:101cec00050078008400780076fd07000007780076
:101cfc00010378008e01780006017800030078005b
:101d0c00820078004f0778004f06be004f05be00da
:101d1c004f04be00cf00b1000000060033ff3700b7
:101d2c000046eb000c04e000bdff3a00eaff370070
:101d3c00e4874700889fbe008a9fbe008c9fbe0030
:101d4c008e1f7800181680004944de006144640040
:101d5c00c342ab00500032008c4280009d42800098
:101d6c000884fb00080444000800e8000000400060
:101d7c00a1428000e180600001004000810220004f
:101d8c008080400008802000e8c478000003b00088
:101d9c006841780061852000824878000005eb00de
:101dac008a057800d2cc2c00c3dc23000c00be00ca
:101dbc0044fd070000077800010678006011b800a8
:101dcc000e0078008c0078001cfb07000000e0007f
:101ddc005a003d008e0178000c0178000300780059
:101dec0082007800f2f9070018fb07004200dd00c2
:101dfc00000044001000be002cfa07000006be00d4
:101e0c001e0107000004e0005a0032000000eb0045
:101e1c00601688000200200003122400804280001b
:101e2c0091428000d2fe070008fb07004200dd0053
:101e3c00000444001800be001cfa07000006be0097
:101e4c000e0107000004e000710032000000eb00fe
:101e5c00a01688008a0178000b0178000300780036
:101e6c00820078008042880091428800e1846400fe
:101e7c00a04280000000a10000807400a0428800f5
:101e8c004f0778004f06be004f05be004f04be0042
:101e9c004f00b100000006008c4280009d42800083
:101eac0002002000832c24000c00be00e5fa070081
:101ebc000000e000aaff3d000880fb00000040008d
:101ecc0000004000a1428000e18060000100400061
:101edc00810220008080400008802000e8c4780047
:101eec000003b000684178006185200082487800ca
:101efc000904e0006f003200a2702d0033c22300f1
:101f0c000c00be002bfb07000005be00d2cc2c0041
:101f1c00c3dc23000c00be00eafc070000077800bd
:101f2c00010678006011b8000e0078008c00780073
:101f3c00c2fa07000000e000a6ff35008e01780011
:101f4c000c0178000300780082007800d7f90700b4
:101f5c00befa07004200dd00000044001000be0085
:101f6c00d2f907000006be00c40007000004e00020
:101f7c00a6ff3a000c00be00900007000004e00031
:101f8c00a2ff3a0002002000037824000c00be00df
:101f9c0005fa070000077800010278000e067800a9
:101fac00840678006011b8000e0078008400780078
:101fbc0084bf9f00a1fa07000fba97000000e00051
:101fcc0055003d000c00be0001f0a200c0fa070055
:101fdc000000ea00601688000200200003122400b2
:101fec00804280009142800061fe070097fa070052
:101ffc004200dd00000444001800be00abf90700ed
:10200c000006be009d0007000004e0008fff3a00b0
:10201c000c00be00690007000004e0008bff3a00d2
:10202c0002002000037824000c00be00def907003b
:10203c0000077800010478000e0678008806780006
:10204c006011b8000e007800880078007bfa070059
:10205c000000e0001a003d000c00be0001f0a200e0
:10206c009bfa07000000ea00a01688008a0178009d
:10207c000b01780003007800820078008042880011
:10208c0091428800e1846400a04280000000a1001d
:10209c0000807400a04288004f0778004f06be00f5
:1020ac004f05be004f04be004f00b10000000600fb
:1020bc0079ff37000005eb008a05780039ff3700ff
:1020cc000e0078008800780081fa0700a0168800be
:1020dc008a0178000b0178000300780082007800f8
:1020ec008042880091428800e1846400a042800014
:1020fc000000a10000807400a04288004f07780007
:10210c004f06be004f05be004f04be004f00b1008d
:10211c000000060060ff37000e0078008400780095
:10212c006bfa0700601688000200200003122400de
:10213c0080428000914280000dfe070043fa0700a8
:10214c004200dd00000444001800be0057f90700ef
:10215c000006be00490007000004e0003bff3a0007
:10216c00abff3700400020000100370000000600e4
:10217c00e40007000042880011428800e4000700d8
:10218c006042880071428800d2000700c04188007c
:10219c00d1418800d20007002042880031428800db
:1021ac00d2000700e0418800f1418800d20007000e
:1021bc00404288005142880000000600889fbe0003
:1021cc008a1f78000004be00c2418000d341800009
:1021dc001afa07001ac0b3000000e0000600320033
:1021ec00e2418000f34180000800be0013fa0700b2
:1021fc000000e00004003a000a4078004f05780027
:10220c004f04be00000006000040eb004f057800b4
:10221c004f04be0000000600fbff3700889fbe0085
:10222c008a1f78000004be002242800033428000e6
:10223c0002fa07001ac0b3000000e00006003200ea
:10224c0042428000534280000800be00fbf90700a8
:10225c000000e00004003a000a4078004f057800c6
:10226c004f04be00000006000040eb004f05780054
:10227c004f04be0000000600fbff3700000378008f
:10228c000200200003f8270002027800838260001d
:10229c000040eb00820f5200838f5a000100320085
:1022ac0000000600f107b2000683700006f0a700dc
:1022bc000603ea000603ea004f30de0000000600c9
:1022cc00000378000200200003f8270002027800c7
:1022dc00838260000040eb00820f5200838f5a0013
:1022ec000100320000000600f107b2000683700006
:1022fc0006f0a7000603ea000603ea004f30de00f2
:10230c00000006004387ab0004003200103a800046
:10231c004c00de006400600037003200e006200054
:10232c00303a880050002000203a8800a109200093
:10233c003200200080072000337420008049780090
:10234c008149780082497800710520001200200034
:10235c0060042000237420008049780081497800b3
:10236c0082497800c01f20006019880000f02f00ff
:10237c00401688008016880001002700000023000a
:10238c00133a800003816000800f5100fcff3a007b
:10239c0042a7ab00feff320072ff07000421ef00e2
:1023ac00f0ff2800a400b60000d0a0002005880093
:1023bc008460a9009460a800f0342c0010088800f8
:1023cc000001200020088800e0342c000008880060
:1023dc0005e1a8005808e200feff320042a0a80068
:1023ec005808a90052fe070042a0a9005808e200b4
:1023fc00f8ff3200f9ff3700a20920008107200006
:10240c003374200081497800824978008049780033
:10241c0071052000120020006004200023742000ad
:10242c0080497800814978008249780000000000da
:10243c000000000000002700123a800082006000bb
:08244c00fdff3a00b5ff370067
:020000040000fa
:102454003808000018000000000000000008000018
:10246400380000000200000000007c004200000070
:10247400c040000000b6420000009e004200000080
:10248400cc42000000da42000000fa0042000000e2
:10249400e040000000fe42000000de0042000100b7
:1024a4000000010001000000010001000100000023
:1024b40000000000580800000200000000000000b6
:1024c4005008000008000000000000005a08000046
:0c24d400020000000000000000000000fa
:020000040000fa
:1024e0000000200001f82700000006000000200086
:1024f00001f82700000006000000200001f82f006e
:10250000000006000000200001f82f000000060077
:102510000000200001fc2f00000006000000200049
:0825200001fc2f000000060081
:00000001FF
